{
  "contractName": "Ballot",
  "abi": [
    {
      "inputs": [
        {
          "internalType": "string[]",
          "name": "proposalNames",
          "type": "string[]"
        }
      ],
      "stateMutability": "nonpayable",
      "type": "constructor"
    },
    {
      "inputs": [],
      "name": "chairperson",
      "outputs": [
        {
          "internalType": "address",
          "name": "",
          "type": "address"
        }
      ],
      "stateMutability": "view",
      "type": "function"
    },
    {
      "inputs": [
        {
          "internalType": "uint256",
          "name": "",
          "type": "uint256"
        }
      ],
      "name": "proposals",
      "outputs": [
        {
          "internalType": "string",
          "name": "name",
          "type": "string"
        },
        {
          "internalType": "uint256",
          "name": "voteCount",
          "type": "uint256"
        }
      ],
      "stateMutability": "view",
      "type": "function"
    },
    {
      "inputs": [
        {
          "internalType": "address",
          "name": "",
          "type": "address"
        }
      ],
      "name": "voters",
      "outputs": [
        {
          "internalType": "uint256",
          "name": "weight",
          "type": "uint256"
        },
        {
          "internalType": "bool",
          "name": "voted",
          "type": "bool"
        },
        {
          "internalType": "address",
          "name": "delegate",
          "type": "address"
        },
        {
          "internalType": "uint256",
          "name": "vote",
          "type": "uint256"
        }
      ],
      "stateMutability": "view",
      "type": "function"
    },
    {
      "inputs": [
        {
          "internalType": "address",
          "name": "voter",
          "type": "address"
        }
      ],
      "name": "giveRightToVote",
      "outputs": [],
      "stateMutability": "nonpayable",
      "type": "function"
    },
    {
      "inputs": [
        {
          "internalType": "address",
          "name": "to",
          "type": "address"
        }
      ],
      "name": "delegate",
      "outputs": [],
      "stateMutability": "nonpayable",
      "type": "function"
    },
    {
      "inputs": [
        {
          "internalType": "uint256",
          "name": "proposal",
          "type": "uint256"
        }
      ],
      "name": "vote",
      "outputs": [],
      "stateMutability": "nonpayable",
      "type": "function"
    },
    {
      "inputs": [],
      "name": "winningProposal",
      "outputs": [
        {
          "internalType": "uint256",
          "name": "winningProposal_",
          "type": "uint256"
        }
      ],
      "stateMutability": "view",
      "type": "function"
    },
    {
      "inputs": [],
      "name": "winnerName",
      "outputs": [
        {
          "components": [
            {
              "internalType": "string",
              "name": "name",
              "type": "string"
            },
            {
              "internalType": "uint256",
              "name": "voteCount",
              "type": "uint256"
            }
          ],
          "internalType": "struct Ballot.Proposal",
          "name": "winnerName_",
          "type": "tuple"
        }
      ],
      "stateMutability": "view",
      "type": "function"
    },
    {
      "inputs": [],
      "name": "viewProposalsName",
      "outputs": [
        {
          "internalType": "string[]",
          "name": "",
          "type": "string[]"
        }
      ],
      "stateMutability": "view",
      "type": "function"
    },
    {
      "inputs": [],
      "name": "viewChairperson",
      "outputs": [
        {
          "internalType": "address",
          "name": "",
          "type": "address"
        }
      ],
      "stateMutability": "view",
      "type": "function"
    },
    {
      "inputs": [],
      "name": "summaryOfVotes",
      "outputs": [
        {
          "components": [
            {
              "internalType": "string",
              "name": "name",
              "type": "string"
            },
            {
              "internalType": "uint256",
              "name": "voteCount",
              "type": "uint256"
            }
          ],
          "internalType": "struct Ballot.Proposal[]",
          "name": "",
          "type": "tuple[]"
        }
      ],
      "stateMutability": "view",
      "type": "function"
    },
    {
      "inputs": [],
      "name": "resetVoters",
      "outputs": [],
      "stateMutability": "nonpayable",
      "type": "function"
    }
  ],
  "bytecode": "0x60806040523480156200001157600080fd5b506040516200211138038062002111833981810160405281019062000037919062000472565b33600260006101000a81548173ffffffffffffffffffffffffffffffffffffffff021916908373ffffffffffffffffffffffffffffffffffffffff160217905550600160036000600260009054906101000a900473ffffffffffffffffffffffffffffffffffffffff1673ffffffffffffffffffffffffffffffffffffffff1673ffffffffffffffffffffffffffffffffffffffff1681526020019081526020016000206000018190555060005b8151811015620001db5760046040518060400160405280848481518110620001125762000111620004c3565b5b602002602001015181526020016000815250908060018154018082558091505060019003906000526020600020906002020160009091909190915060008201518160000190816200016491906200073d565b506020820151816001015550506000828281518110620001895762000188620004c3565b5b6020026020010151908060018154018082558091505060019003906000526020600020016000909190919091509081620001c491906200073d565b508080620001d29062000853565b915050620000e5565b5050620008a0565b6000604051905090565b600080fd5b600080fd5b600080fd5b6000601f19601f8301169050919050565b7f4e487b7100000000000000000000000000000000000000000000000000000000600052604160045260246000fd5b6200024782620001fc565b810181811067ffffffffffffffff821117156200026957620002686200020d565b5b80604052505050565b60006200027e620001e3565b90506200028c82826200023c565b919050565b600067ffffffffffffffff821115620002af57620002ae6200020d565b5b602082029050602081019050919050565b600080fd5b600080fd5b600067ffffffffffffffff821115620002e857620002e76200020d565b5b620002f382620001fc565b9050602081019050919050565b60005b838110156200032057808201518184015260208101905062000303565b60008484015250505050565b6000620003436200033d84620002ca565b62000272565b905082815260208101848484011115620003625762000361620002c5565b5b6200036f84828562000300565b509392505050565b600082601f8301126200038f576200038e620001f7565b5b8151620003a18482602086016200032c565b91505092915050565b6000620003c1620003bb8462000291565b62000272565b90508083825260208201905060208402830185811115620003e757620003e6620002c0565b5b835b818110156200043557805167ffffffffffffffff81111562000410576200040f620001f7565b5b8086016200041f898262000377565b85526020850194505050602081019050620003e9565b5050509392505050565b600082601f830112620004575762000456620001f7565b5b815162000469848260208601620003aa565b91505092915050565b6000602082840312156200048b576200048a620001ed565b5b600082015167ffffffffffffffff811115620004ac57620004ab620001f2565b5b620004ba848285016200043f565b91505092915050565b7f4e487b7100000000000000000000000000000000000000000000000000000000600052603260045260246000fd5b600081519050919050565b7f4e487b7100000000000000000000000000000000000000000000000000000000600052602260045260246000fd5b600060028204905060018216806200054557607f821691505b6020821081036200055b576200055a620004fd565b5b50919050565b60008190508160005260206000209050919050565b60006020601f8301049050919050565b600082821b905092915050565b600060088302620005c57fffffffffffffffffffffffffffffffffffffffffffffffffffffffffffffffff8262000586565b620005d1868362000586565b95508019841693508086168417925050509392505050565b6000819050919050565b6000819050919050565b60006200061e620006186200061284620005e9565b620005f3565b620005e9565b9050919050565b6000819050919050565b6200063a83620005fd565b62000652620006498262000625565b84845462000593565b825550505050565b600090565b620006696200065a565b620006768184846200062f565b505050565b5b818110156200069e57620006926000826200065f565b6001810190506200067c565b5050565b601f821115620006ed57620006b78162000561565b620006c28462000576565b81016020851015620006d2578190505b620006ea620006e18562000576565b8301826200067b565b50505b505050565b600082821c905092915050565b60006200071260001984600802620006f2565b1980831691505092915050565b60006200072d8383620006ff565b9150826002028217905092915050565b6200074882620004f2565b67ffffffffffffffff8111156200076457620007636200020d565b5b6200077082546200052c565b6200077d828285620006a2565b600060209050601f831160018114620007b55760008415620007a0578287015190505b620007ac85826200071f565b8655506200081c565b601f198416620007c58662000561565b60005b82811015620007ef57848901518255600182019150602085019450602081019050620007c8565b868310156200080f57848901516200080b601f891682620006ff565b8355505b6001600288020188555050505b505050505050565b7f4e487b7100000000000000000000000000000000000000000000000000000000600052601160045260246000fd5b60006200086082620005e9565b91507fffffffffffffffffffffffffffffffffffffffffffffffffffffffffffffffff820362000895576200089462000824565b5b600182019050919050565b61186180620008b06000396000f3fe608060405234801561001057600080fd5b50600436106100b45760003560e01c8063609ff1bd11610071578063609ff1bd14610168578063666409e8146101865780639e7b8d61146101a4578063a3ec138d146101c0578063e2ba53f0146101f3578063f236910314610211576100b4565b80630121b93f146100b9578063013cf08b146100d55780632e4176cf14610106578063553bd397146101245780635aec325c1461012e5780635c19a95c1461014c575b600080fd5b6100d360048036038101906100ce9190610f14565b61022f565b005b6100ef60048036038101906100ea9190610f14565b6103d8565b6040516100fd929190610fe0565b60405180910390f35b61010e610494565b60405161011b9190611051565b60405180910390f35b61012c6104ba565b005b6101366105e2565b60405161014391906111c4565b60405180910390f35b61016660048036038101906101619190611212565b6106dd565b005b610170610ad0565b60405161017d919061123f565b60405180910390f35b61018e610b58565b60405161019b919061131c565b60405180910390f35b6101be60048036038101906101b99190611212565b610c31565b005b6101da60048036038101906101d59190611212565b610d5b565b6040516101ea9493929190611359565b60405180910390f35b6101fb610db8565b60405161020891906113db565b60405180910390f35b610219610e95565b6040516102269190611051565b60405180910390f35b6000600360003373ffffffffffffffffffffffffffffffffffffffff1673ffffffffffffffffffffffffffffffffffffffff168152602001908152602001600020905060008160000154036102b9576040517f08c379a00000000000000000000000000000000000000000000000000000000081526004016102b090611449565b60405180910390fd5b8060010160009054906101000a900460ff161561030b576040517f08c379a0000000000000000000000000000000000000000000000000000000008152600401610302906114b5565b60405180910390fd5b60018160010160006101000a81548160ff02191690831515021790555081816002018190555080600001546004838154811061034a576103496114d5565b5b9060005260206000209060020201600101600082825461036a9190611533565b925050819055506001339080600181540180825580915050600190039060005260206000200160009091909190916101000a81548173ffffffffffffffffffffffffffffffffffffffff021916908373ffffffffffffffffffffffffffffffffffffffff1602179055505050565b600481815481106103e857600080fd5b906000526020600020906002020160009150905080600001805461040b90611596565b80601f016020809104026020016040519081016040528092919081815260200182805461043790611596565b80156104845780601f1061045957610100808354040283529160200191610484565b820191906000526020600020905b81548152906001019060200180831161046757829003601f168201915b5050505050908060010154905082565b600260009054906101000a900473ffffffffffffffffffffffffffffffffffffffff1681565b60005b60018054905081101561059057600060036000600184815481106104e4576104e36114d5565b5b9060005260206000200160009054906101000a900473ffffffffffffffffffffffffffffffffffffffff1673ffffffffffffffffffffffffffffffffffffffff1673ffffffffffffffffffffffffffffffffffffffff16815260200190815260200160002090506000816002018190555060008160010160006101000a81548160ff02191690831515021790555060008160000181905550508080610588906115c7565b9150506104bd565b5060005b6004805490508110156105df576000600482815481106105b7576105b66114d5565b5b90600052602060002090600202016001018190555080806105d7906115c7565b915050610594565b50565b60606004805480602002602001604051908101604052809291908181526020016000905b828210156106d4578382906000526020600020906002020160405180604001604052908160008201805461063990611596565b80601f016020809104026020016040519081016040528092919081815260200182805461066590611596565b80156106b25780601f10610687576101008083540402835291602001916106b2565b820191906000526020600020905b81548152906001019060200180831161069557829003601f168201915b5050505050815260200160018201548152505081526020019060010190610606565b50505050905090565b6000600360003373ffffffffffffffffffffffffffffffffffffffff1673ffffffffffffffffffffffffffffffffffffffff16815260200190815260200160002090506000816000015403610767576040517f08c379a000000000000000000000000000000000000000000000000000000000815260040161075e9061165b565b60405180910390fd5b8060010160009054906101000a900460ff16156107b9576040517f08c379a00000000000000000000000000000000000000000000000000000000081526004016107b0906116c7565b60405180910390fd5b3373ffffffffffffffffffffffffffffffffffffffff168273ffffffffffffffffffffffffffffffffffffffff1603610827576040517f08c379a000000000000000000000000000000000000000000000000000000000815260040161081e90611733565b60405180910390fd5b5b600073ffffffffffffffffffffffffffffffffffffffff16600360008473ffffffffffffffffffffffffffffffffffffffff1673ffffffffffffffffffffffffffffffffffffffff16815260200190815260200160002060010160019054906101000a900473ffffffffffffffffffffffffffffffffffffffff1673ffffffffffffffffffffffffffffffffffffffff161461099657600360008373ffffffffffffffffffffffffffffffffffffffff1673ffffffffffffffffffffffffffffffffffffffff16815260200190815260200160002060010160019054906101000a900473ffffffffffffffffffffffffffffffffffffffff1691503373ffffffffffffffffffffffffffffffffffffffff168273ffffffffffffffffffffffffffffffffffffffff1603610991576040517f08c379a00000000000000000000000000000000000000000000000000000000081526004016109889061179f565b60405180910390fd5b610828565b6000600360008473ffffffffffffffffffffffffffffffffffffffff1673ffffffffffffffffffffffffffffffffffffffff16815260200190815260200160002090506001816000015410156109eb57600080fd5b60018260010160006101000a81548160ff021916908315150217905550828260010160016101000a81548173ffffffffffffffffffffffffffffffffffffffff021916908373ffffffffffffffffffffffffffffffffffffffff1602179055508060010160009054906101000a900460ff1615610aab5781600001546004826002015481548110610a7f57610a7e6114d5565b5b90600052602060002090600202016001016000828254610a9f9190611533565b92505081905550610acb565b8160000154816000016000828254610ac39190611533565b925050819055505b505050565b6000806000905060005b600480549050811015610b53578160048281548110610afc57610afb6114d5565b5b9060005260206000209060020201600101541115610b405760048181548110610b2857610b276114d5565b5b90600052602060002090600202016001015491508092505b8080610b4b906115c7565b915050610ada565b505090565b60606000805480602002602001604051908101604052809291908181526020016000905b82821015610c28578382906000526020600020018054610b9b90611596565b80601f0160208091040260200160405190810160405280929190818152602001828054610bc790611596565b8015610c145780601f10610be957610100808354040283529160200191610c14565b820191906000526020600020905b815481529060010190602001808311610bf757829003601f168201915b505050505081526020019060010190610b7c565b50505050905090565b600360008273ffffffffffffffffffffffffffffffffffffffff1673ffffffffffffffffffffffffffffffffffffffff16815260200190815260200160002060010160009054906101000a900460ff1615610cc1576040517f08c379a0000000000000000000000000000000000000000000000000000000008152600401610cb89061180b565b60405180910390fd5b6000600360008373ffffffffffffffffffffffffffffffffffffffff1673ffffffffffffffffffffffffffffffffffffffff1681526020019081526020016000206000015414610d1057600080fd5b6001600360008373ffffffffffffffffffffffffffffffffffffffff1673ffffffffffffffffffffffffffffffffffffffff1681526020019081526020016000206000018190555050565b60036020528060005260406000206000915090508060000154908060010160009054906101000a900460ff16908060010160019054906101000a900473ffffffffffffffffffffffffffffffffffffffff16908060020154905084565b610dc0610ebf565b6004610dca610ad0565b81548110610ddb57610dda6114d5565b5b9060005260206000209060020201604051806040016040529081600082018054610e0490611596565b80601f0160208091040260200160405190810160405280929190818152602001828054610e3090611596565b8015610e7d5780601f10610e5257610100808354040283529160200191610e7d565b820191906000526020600020905b815481529060010190602001808311610e6057829003601f168201915b50505050508152602001600182015481525050905090565b6000600260009054906101000a900473ffffffffffffffffffffffffffffffffffffffff16905090565b604051806040016040528060608152602001600081525090565b600080fd5b6000819050919050565b610ef181610ede565b8114610efc57600080fd5b50565b600081359050610f0e81610ee8565b92915050565b600060208284031215610f2a57610f29610ed9565b5b6000610f3884828501610eff565b91505092915050565b600081519050919050565b600082825260208201905092915050565b60005b83811015610f7b578082015181840152602081019050610f60565b60008484015250505050565b6000601f19601f8301169050919050565b6000610fa382610f41565b610fad8185610f4c565b9350610fbd818560208601610f5d565b610fc681610f87565b840191505092915050565b610fda81610ede565b82525050565b60006040820190508181036000830152610ffa8185610f98565b90506110096020830184610fd1565b9392505050565b600073ffffffffffffffffffffffffffffffffffffffff82169050919050565b600061103b82611010565b9050919050565b61104b81611030565b82525050565b60006020820190506110666000830184611042565b92915050565b600081519050919050565b600082825260208201905092915050565b6000819050602082019050919050565b600082825260208201905092915050565b60006110b482610f41565b6110be8185611098565b93506110ce818560208601610f5d565b6110d781610f87565b840191505092915050565b6110eb81610ede565b82525050565b6000604083016000830151848203600086015261110e82826110a9565b915050602083015161112360208601826110e2565b508091505092915050565b600061113a83836110f1565b905092915050565b6000602082019050919050565b600061115a8261106c565b6111648185611077565b93508360208202850161117685611088565b8060005b858110156111b25784840389528151611193858261112e565b945061119e83611142565b925060208a0199505060018101905061117a565b50829750879550505050505092915050565b600060208201905081810360008301526111de818461114f565b905092915050565b6111ef81611030565b81146111fa57600080fd5b50565b60008135905061120c816111e6565b92915050565b60006020828403121561122857611227610ed9565b5b6000611236848285016111fd565b91505092915050565b60006020820190506112546000830184610fd1565b92915050565b600081519050919050565b600082825260208201905092915050565b6000819050602082019050919050565b600061129283836110a9565b905092915050565b6000602082019050919050565b60006112b28261125a565b6112bc8185611265565b9350836020820285016112ce85611276565b8060005b8581101561130a57848403895281516112eb8582611286565b94506112f68361129a565b925060208a019950506001810190506112d2565b50829750879550505050505092915050565b6000602082019050818103600083015261133681846112a7565b905092915050565b60008115159050919050565b6113538161133e565b82525050565b600060808201905061136e6000830187610fd1565b61137b602083018661134a565b6113886040830185611042565b6113956060830184610fd1565b95945050505050565b600060408301600083015184820360008601526113bb82826110a9565b91505060208301516113d060208601826110e2565b508091505092915050565b600060208201905081810360008301526113f5818461139e565b905092915050565b7f486173206e6f20726967687420746f20766f7465000000000000000000000000600082015250565b6000611433601483610f4c565b915061143e826113fd565b602082019050919050565b6000602082019050818103600083015261146281611426565b9050919050565b7f416c726561647920766f7465642e000000000000000000000000000000000000600082015250565b600061149f600e83610f4c565b91506114aa82611469565b602082019050919050565b600060208201905081810360008301526114ce81611492565b9050919050565b7f4e487b7100000000000000000000000000000000000000000000000000000000600052603260045260246000fd5b7f4e487b7100000000000000000000000000000000000000000000000000000000600052601160045260246000fd5b600061153e82610ede565b915061154983610ede565b925082820190508082111561156157611560611504565b5b92915050565b7f4e487b7100000000000000000000000000000000000000000000000000000000600052602260045260246000fd5b600060028204905060018216806115ae57607f821691505b6020821081036115c1576115c0611567565b5b50919050565b60006115d282610ede565b91507fffffffffffffffffffffffffffffffffffffffffffffffffffffffffffffffff820361160457611603611504565b5b600182019050919050565b7f596f752068617665206e6f20726967687420746f20766f746500000000000000600082015250565b6000611645601983610f4c565b91506116508261160f565b602082019050919050565b6000602082019050818103600083015261167481611638565b9050919050565b7f596f7520616c726561647920766f7465642e0000000000000000000000000000600082015250565b60006116b1601283610f4c565b91506116bc8261167b565b602082019050919050565b600060208201905081810360008301526116e0816116a4565b9050919050565b7f53656c662d64656c65676174696f6e20697320646973616c6c6f7765642e0000600082015250565b600061171d601e83610f4c565b9150611728826116e7565b602082019050919050565b6000602082019050818103600083015261174c81611710565b9050919050565b7f466f756e64206c6f6f7020696e2064656c65676174696f6e2e00000000000000600082015250565b6000611789601983610f4c565b915061179482611753565b602082019050919050565b600060208201905081810360008301526117b88161177c565b9050919050565b7f54686520766f74657220616c726561647920766f7465642e0000000000000000600082015250565b60006117f5601883610f4c565b9150611800826117bf565b602082019050919050565b60006020820190508181036000830152611824816117e8565b905091905056fea2646970667358221220e9bf9b782d9d0a9e5825ececbb6a8352f2d48abb68b51f2e915129cf01761bf264736f6c63430008110033",
  "immutableReferences": {},
  "source": "// SPDX-License-Identifier: GPL-3.0\r\npragma solidity >=0.7.0 <0.9.0;\r\n/// @title Voting with delegation.\r\ncontract Ballot {\r\n    // This declares a new complex type which will\r\n    // be used for variables later.\r\n    // It will represent a single voter.\r\n    string[] proposalsNames;\r\n    address[] voterName; \r\n\r\n    struct Voter {\r\n        uint weight; // weight is accumulated by delegation\r\n        bool voted;  // if true, that person already voted\r\n        address delegate; // person delegated to\r\n        uint vote;   // index of the voted proposal\r\n    }\r\n\r\n    // This is a type for a single proposal.\r\n    struct Proposal {\r\n        string name;   // short name (up to 32 bytes)\r\n        uint voteCount; // number of accumulated votes\r\n    }\r\n\r\n    address public chairperson;\r\n\r\n    // This declares a state variable that\r\n    // stores a `Voter` struct for each possible address.\r\n    mapping(address => Voter) public voters;\r\n\r\n    // A dynamically-sized array of `Proposal` structs.\r\n    Proposal[] public proposals;\r\n\r\n    /// Create a new ballot to choose one of `proposalNames`.\r\n    constructor(string[] memory proposalNames) {\r\n        chairperson = msg.sender;\r\n        voters[chairperson].weight = 1;\r\n\r\n        // For each of the provided proposal names,\r\n        // create a new proposal object and add it\r\n        // to the end of the array.\r\n        for (uint i = 0; i < proposalNames.length; i++) {\r\n            // `Proposal({...})` creates a temporary\r\n            // Proposal object and `proposals.push(...)`\r\n            // appends it to the end of `proposals`.\r\n            proposals.push(Proposal({\r\n                name: proposalNames[i],\r\n                voteCount: 0\r\n            }));\r\n\r\n            proposalsNames.push(proposalNames[i]);\r\n        }\r\n    }\r\n\r\n    // Give `voter` the right to vote on this ballot.\r\n    // May only be called by `chairperson`.\r\n    function giveRightToVote(address voter) external {\r\n        \r\n        require(\r\n            !voters[voter].voted,\r\n            \"The voter already voted.\"\r\n        );\r\n        require(voters[voter].weight == 0);\r\n        voters[voter].weight = 1;\r\n    }\r\n\r\n    /// Delegate your vote to the voter `to`.\r\n    function delegate(address to) external {\r\n        // assigns reference\r\n        Voter storage sender = voters[msg.sender];\r\n        require(sender.weight != 0, \"You have no right to vote\");\r\n        require(!sender.voted, \"You already voted.\");\r\n\r\n        require(to != msg.sender, \"Self-delegation is disallowed.\");\r\n\r\n        // Forward the delegation as long as\r\n        // `to` also delegated.\r\n        // In general, such loops are very dangerous,\r\n        // because if they run too long, they might\r\n        // need more gas than is available in a block.\r\n        // In this case, the delegation will not be executed,\r\n        // but in other situations, such loops might\r\n        // cause a contract to get \"stuck\" completely.\r\n        while (voters[to].delegate != address(0)) {\r\n            to = voters[to].delegate;\r\n\r\n            // We found a loop in the delegation, not allowed.\r\n            require(to != msg.sender, \"Found loop in delegation.\");\r\n        }\r\n\r\n        Voter storage delegate_ = voters[to];\r\n\r\n        // Voters cannot delegate to accounts that cannot vote.\r\n        require(delegate_.weight >= 1);\r\n\r\n        // Since `sender` is a reference, this\r\n        // modifies `voters[msg.sender]`.\r\n        sender.voted = true;\r\n        sender.delegate = to;\r\n\r\n        if (delegate_.voted) {\r\n            // If the delegate already voted,\r\n            // directly add to the number of votes\r\n            proposals[delegate_.vote].voteCount += sender.weight;\r\n        } else {\r\n            // If the delegate did not vote yet,\r\n            // add to her weight.\r\n            delegate_.weight += sender.weight;\r\n        }\r\n    }\r\n\r\n    /// Give your vote (including votes delegated to you)\r\n    /// to proposal `proposals[proposal].name`.\r\n    function vote(uint proposal) external {\r\n        Voter storage sender = voters[msg.sender];\r\n        require(sender.weight != 0, \"Has no right to vote\");\r\n        require(!sender.voted, \"Already voted.\");\r\n        sender.voted = true;\r\n        sender.vote = proposal;\r\n\r\n        // If `proposal` is out of the range of the array,\r\n        // this will throw automatically and revert all\r\n        // changes.\r\n        proposals[proposal].voteCount += sender.weight;\r\n        voterName.push(msg.sender);\r\n    }\r\n\r\n    /// @dev Computes the winning proposal taking all\r\n    /// previous votes into account.\r\n    function winningProposal() public view\r\n            returns (uint winningProposal_)\r\n    {\r\n        uint winningVoteCount = 0;\r\n        for (uint p = 0; p < proposals.length; p++) {\r\n            if (proposals[p].voteCount > winningVoteCount) {\r\n                winningVoteCount = proposals[p].voteCount;\r\n                winningProposal_ = p;\r\n            }\r\n        }\r\n    }\r\n\r\n    // Calls winningProposal() function to get the index\r\n    // of the winner contained in the proposals array and then\r\n    // returns the name of the winner\r\n    function winnerName() external view\r\n            returns (Proposal memory winnerName_)\r\n    {\r\n        winnerName_ = proposals[winningProposal()];\r\n    }\r\n\r\n    function viewProposalsName() public view returns (string[] memory){\r\n        return proposalsNames;\r\n    }\r\n\r\n    function viewChairperson() public view returns (address){\r\n        return chairperson;\r\n    }\r\n\r\n    function summaryOfVotes() public view returns (Proposal[] memory){\r\n        return proposals;\r\n    }\r\n\r\n    function resetVoters() external {\r\n        for(uint p = 0; p < voterName.length; p++){\r\n            Voter storage voter = voters[voterName[p]];\r\n            voter.vote = 0;\r\n            voter.voted = false;\r\n            voter.weight = 0;\r\n        }\r\n        for (uint p = 0; p < proposals.length; p++) {\r\n            proposals[p].voteCount = 0;\r\n        }   \r\n    }\r\n}",
  "sourcePath": "E:\\Spring 2024\\CPSC 559 Adv. Blockchain\\VotingApp V2\\Team-ABCD-Voting-with-blockchain\\contracts\\Ballot.sol",
  "compiler": {
    "name": "solc",
    "version": "0.8.17+commit.8df45f5f.Emscripten.clang"
  },
  "schemaVersion": "3.4.16",
  "updatedAt": "2024-05-05T23:02:31.114Z",
  "devdoc": {
    "kind": "dev",
    "methods": {
      "winningProposal()": {
        "details": "Computes the winning proposal taking all previous votes into account."
      }
    },
    "title": "Voting with delegation.",
    "version": 1
  },
  "userdoc": {
    "kind": "user",
    "methods": {
      "constructor": {
        "notice": "Create a new ballot to choose one of `proposalNames`."
      },
      "delegate(address)": {
        "notice": "Delegate your vote to the voter `to`."
      },
      "vote(uint256)": {
        "notice": "Give your vote (including votes delegated to you) to proposal `proposals[proposal].name`."
      }
    },
    "version": 1
  }
}