{
  "contractName": "Market",
  "abi": [
    {
      "anonymous": false,
      "inputs": [
        {
          "indexed": false,
          "internalType": "uint256",
          "name": "listingId",
          "type": "uint256"
        },
        {
          "indexed": false,
          "internalType": "address",
          "name": "seller",
          "type": "address"
        }
      ],
      "name": "Cancel",
      "type": "event"
    },
    {
      "anonymous": false,
      "inputs": [
        {
          "indexed": false,
          "internalType": "uint256",
          "name": "listingId",
          "type": "uint256"
        },
        {
          "indexed": false,
          "internalType": "address",
          "name": "seller",
          "type": "address"
        },
        {
          "indexed": false,
          "internalType": "address",
          "name": "token",
          "type": "address"
        },
        {
          "indexed": false,
          "internalType": "uint256",
          "name": "tokenId",
          "type": "uint256"
        },
        {
          "indexed": false,
          "internalType": "uint256",
          "name": "price",
          "type": "uint256"
        }
      ],
      "name": "Listed",
      "type": "event"
    },
    {
      "anonymous": false,
      "inputs": [
        {
          "indexed": false,
          "internalType": "uint256",
          "name": "listingId",
          "type": "uint256"
        },
        {
          "indexed": false,
          "internalType": "address",
          "name": "buyer",
          "type": "address"
        },
        {
          "indexed": false,
          "internalType": "address",
          "name": "token",
          "type": "address"
        },
        {
          "indexed": false,
          "internalType": "uint256",
          "name": "tokenId",
          "type": "uint256"
        },
        {
          "indexed": false,
          "internalType": "uint256",
          "name": "price",
          "type": "uint256"
        }
      ],
      "name": "Sale",
      "type": "event"
    },
    {
      "inputs": [
        {
          "internalType": "uint256",
          "name": "",
          "type": "uint256"
        }
      ],
      "name": "temp_list",
      "outputs": [
        {
          "internalType": "enum Market.ListingStatus",
          "name": "status",
          "type": "uint8"
        },
        {
          "internalType": "address",
          "name": "seller",
          "type": "address"
        },
        {
          "internalType": "address",
          "name": "token",
          "type": "address"
        },
        {
          "internalType": "uint256",
          "name": "tokenId",
          "type": "uint256"
        },
        {
          "internalType": "uint256",
          "name": "price",
          "type": "uint256"
        }
      ],
      "stateMutability": "view",
      "type": "function"
    },
    {
      "inputs": [
        {
          "internalType": "address",
          "name": "token",
          "type": "address"
        },
        {
          "internalType": "uint256",
          "name": "tokenId",
          "type": "uint256"
        },
        {
          "internalType": "uint256",
          "name": "price",
          "type": "uint256"
        }
      ],
      "name": "listToken",
      "outputs": [
        {
          "internalType": "uint256",
          "name": "",
          "type": "uint256"
        }
      ],
      "stateMutability": "nonpayable",
      "type": "function"
    },
    {
      "inputs": [
        {
          "internalType": "uint256",
          "name": "listingid",
          "type": "uint256"
        }
      ],
      "name": "getListing",
      "outputs": [
        {
          "components": [
            {
              "internalType": "enum Market.ListingStatus",
              "name": "status",
              "type": "uint8"
            },
            {
              "internalType": "address",
              "name": "seller",
              "type": "address"
            },
            {
              "internalType": "address",
              "name": "token",
              "type": "address"
            },
            {
              "internalType": "uint256",
              "name": "tokenId",
              "type": "uint256"
            },
            {
              "internalType": "uint256",
              "name": "price",
              "type": "uint256"
            }
          ],
          "internalType": "struct Market.Listing",
          "name": "",
          "type": "tuple"
        }
      ],
      "stateMutability": "view",
      "type": "function"
    },
    {
      "inputs": [],
      "name": "getAllNFT",
      "outputs": [
        {
          "components": [
            {
              "internalType": "enum Market.ListingStatus",
              "name": "status",
              "type": "uint8"
            },
            {
              "internalType": "address",
              "name": "seller",
              "type": "address"
            },
            {
              "internalType": "address",
              "name": "token",
              "type": "address"
            },
            {
              "internalType": "uint256",
              "name": "tokenId",
              "type": "uint256"
            },
            {
              "internalType": "uint256",
              "name": "price",
              "type": "uint256"
            }
          ],
          "internalType": "struct Market.Listing[]",
          "name": "",
          "type": "tuple[]"
        }
      ],
      "stateMutability": "nonpayable",
      "type": "function"
    },
    {
      "inputs": [
        {
          "internalType": "uint256",
          "name": "listingId",
          "type": "uint256"
        }
      ],
      "name": "buyToken",
      "outputs": [],
      "stateMutability": "payable",
      "type": "function"
    },
    {
      "inputs": [
        {
          "internalType": "uint256",
          "name": "listingId",
          "type": "uint256"
        }
      ],
      "name": "cancel",
      "outputs": [],
      "stateMutability": "nonpayable",
      "type": "function"
    }
  ],
  "bytecode": "0x60806040526000805534801561001457600080fd5b5061152b806100246000396000f3fe6080604052600436106100555760003560e01c8063107a274a1461005a5780632d296bf11461009757806340e58ee5146100b35780637e07590d146100dc5780638ea22e9f14610119578063f3b1633d1461015a575b600080fd5b34801561006657600080fd5b50610081600480360381019061007c9190610e40565b610185565b60405161008e9190610f9c565b60405180910390f35b6100b160048036038101906100ac9190610e40565b6102ad565b005b3480156100bf57600080fd5b506100da60048036038101906100d59190610e40565b6105b7565b005b3480156100e857600080fd5b5061010360048036038101906100fe9190610fe3565b6107fd565b6040516101109190611045565b60405180910390f35b34801561012557600080fd5b50610140600480360381019061013b9190610e40565b610a27565b60405161015195949392919061107e565b60405180910390f35b34801561016657600080fd5b5061016f610aba565b60405161017c91906111e8565b60405180910390f35b61018d610d98565b600160008381526020019081526020016000206040518060a00160405290816000820160009054906101000a900460ff1660028111156101d0576101cf610e6d565b5b60028111156101e2576101e1610e6d565b5b81526020016000820160019054906101000a900473ffffffffffffffffffffffffffffffffffffffff1673ffffffffffffffffffffffffffffffffffffffff1673ffffffffffffffffffffffffffffffffffffffff1681526020016001820160009054906101000a900473ffffffffffffffffffffffffffffffffffffffff1673ffffffffffffffffffffffffffffffffffffffff1673ffffffffffffffffffffffffffffffffffffffff168152602001600282015481526020016003820154815250509050919050565b60006001600083815260200190815260200160002090508060000160019054906101000a900473ffffffffffffffffffffffffffffffffffffffff1673ffffffffffffffffffffffffffffffffffffffff163373ffffffffffffffffffffffffffffffffffffffff1603610356576040517f08c379a000000000000000000000000000000000000000000000000000000000815260040161034d90611267565b60405180910390fd5b6000600281111561036a57610369610e6d565b5b8160000160009054906101000a900460ff16600281111561038e5761038d610e6d565b5b146103ce576040517f08c379a00000000000000000000000000000000000000000000000000000000081526004016103c5906112d3565b60405180910390fd5b8060030154341015610415576040517f08c379a000000000000000000000000000000000000000000000000000000000815260040161040c9061133f565b60405180910390fd5b60018160000160006101000a81548160ff0219169083600281111561043d5761043c610e6d565b5b02179055508060010160009054906101000a900473ffffffffffffffffffffffffffffffffffffffff1673ffffffffffffffffffffffffffffffffffffffff166323b872dd303384600201546040518463ffffffff1660e01b81526004016104a79392919061135f565b600060405180830381600087803b1580156104c157600080fd5b505af11580156104d5573d6000803e3d6000fd5b505050508060000160019054906101000a900473ffffffffffffffffffffffffffffffffffffffff1673ffffffffffffffffffffffffffffffffffffffff166108fc82600301549081150290604051600060405180830381858888f19350505050158015610547573d6000803e3d6000fd5b507ff3debaf22196a6ddf52a60fa71058cd7edf5e25bb98f4e96c994a5d4a9b0dd3e82338360010160009054906101000a900473ffffffffffffffffffffffffffffffffffffffff16846002015485600301546040516105ab959493929190611396565b60405180910390a15050565b60006001600083815260200190815260200160002090508060000160019054906101000a900473ffffffffffffffffffffffffffffffffffffffff1673ffffffffffffffffffffffffffffffffffffffff163373ffffffffffffffffffffffffffffffffffffffff1614610660576040517f08c379a000000000000000000000000000000000000000000000000000000000815260040161065790611435565b60405180910390fd5b6000600281111561067457610673610e6d565b5b8160000160009054906101000a900460ff16600281111561069857610697610e6d565b5b146106d8576040517f08c379a00000000000000000000000000000000000000000000000000000000081526004016106cf906112d3565b60405180910390fd5b60028160000160006101000a81548160ff02191690836002811115610700576106ff610e6d565b5b02179055508060010160009054906101000a900473ffffffffffffffffffffffffffffffffffffffff1673ffffffffffffffffffffffffffffffffffffffff166323b872dd303384600201546040518463ffffffff1660e01b815260040161076a9392919061135f565b600060405180830381600087803b15801561078457600080fd5b505af1158015610798573d6000803e3d6000fd5b505050507f8dd3c361eb2366ff27c2db0eb07b9261f1d052570742ab8c9a0c326f37aa576d828260000160019054906101000a900473ffffffffffffffffffffffffffffffffffffffff166040516107f1929190611455565b60405180910390a15050565b60008373ffffffffffffffffffffffffffffffffffffffff166323b872dd3330866040518463ffffffff1660e01b815260040161083c9392919061135f565b600060405180830381600087803b15801561085657600080fd5b505af115801561086a573d6000803e3d6000fd5b5050505060006040518060a001604052806000600281111561088f5761088e610e6d565b5b81526020013373ffffffffffffffffffffffffffffffffffffffff1681526020018673ffffffffffffffffffffffffffffffffffffffff1681526020018581526020018481525090506000808154809291906108ea906114ad565b919050555080600160008054815260200190815260200160002060008201518160000160006101000a81548160ff0219169083600281111561092f5761092e610e6d565b5b021790555060208201518160000160016101000a81548173ffffffffffffffffffffffffffffffffffffffff021916908373ffffffffffffffffffffffffffffffffffffffff16021790555060408201518160010160006101000a81548173ffffffffffffffffffffffffffffffffffffffff021916908373ffffffffffffffffffffffffffffffffffffffff16021790555060608201518160020155608082015181600301559050507f723f73331eaee88eec7fc68ef60ab6ed15e4b90d0472b55eb92fa43910bab6dd60005433878787604051610a12959493929190611396565b60405180910390a16000549150509392505050565b60028181548110610a3757600080fd5b90600052602060002090600402016000915090508060000160009054906101000a900460ff16908060000160019054906101000a900473ffffffffffffffffffffffffffffffffffffffff16908060010160009054906101000a900473ffffffffffffffffffffffffffffffffffffffff16908060020154908060030154905085565b60606000600190505b6000548111610c3f576002600160008054815260200190815260200160002090806001815401808255809150506001900390600052602060002090600402016000909190919091506000820160009054906101000a900460ff168160000160006101000a81548160ff02191690836002811115610b4357610b42610e6d565b5b02179055506000820160019054906101000a900473ffffffffffffffffffffffffffffffffffffffff168160000160016101000a81548173ffffffffffffffffffffffffffffffffffffffff021916908373ffffffffffffffffffffffffffffffffffffffff1602179055506001820160009054906101000a900473ffffffffffffffffffffffffffffffffffffffff168160010160006101000a81548173ffffffffffffffffffffffffffffffffffffffff021916908373ffffffffffffffffffffffffffffffffffffffff160217905550600282015481600201556003820154816003015550508080610c37906114ad565b915050610ac3565b506002805480602002602001604051908101604052809291908181526020016000905b82821015610d8f57838290600052602060002090600402016040518060a00160405290816000820160009054906101000a900460ff166002811115610caa57610ca9610e6d565b5b6002811115610cbc57610cbb610e6d565b5b81526020016000820160019054906101000a900473ffffffffffffffffffffffffffffffffffffffff1673ffffffffffffffffffffffffffffffffffffffff1673ffffffffffffffffffffffffffffffffffffffff1681526020016001820160009054906101000a900473ffffffffffffffffffffffffffffffffffffffff1673ffffffffffffffffffffffffffffffffffffffff1673ffffffffffffffffffffffffffffffffffffffff1681526020016002820154815260200160038201548152505081526020019060010190610c62565b50505050905090565b6040518060a0016040528060006002811115610db757610db6610e6d565b5b8152602001600073ffffffffffffffffffffffffffffffffffffffff168152602001600073ffffffffffffffffffffffffffffffffffffffff16815260200160008152602001600081525090565b600080fd5b6000819050919050565b610e1d81610e0a565b8114610e2857600080fd5b50565b600081359050610e3a81610e14565b92915050565b600060208284031215610e5657610e55610e05565b5b6000610e6484828501610e2b565b91505092915050565b7f4e487b7100000000000000000000000000000000000000000000000000000000600052602160045260246000fd5b60038110610ead57610eac610e6d565b5b50565b6000819050610ebe82610e9c565b919050565b6000610ece82610eb0565b9050919050565b610ede81610ec3565b82525050565b600073ffffffffffffffffffffffffffffffffffffffff82169050919050565b6000610f0f82610ee4565b9050919050565b610f1f81610f04565b82525050565b610f2e81610e0a565b82525050565b60a082016000820151610f4a6000850182610ed5565b506020820151610f5d6020850182610f16565b506040820151610f706040850182610f16565b506060820151610f836060850182610f25565b506080820151610f966080850182610f25565b50505050565b600060a082019050610fb16000830184610f34565b92915050565b610fc081610f04565b8114610fcb57600080fd5b50565b600081359050610fdd81610fb7565b92915050565b600080600060608486031215610ffc57610ffb610e05565b5b600061100a86828701610fce565b935050602061101b86828701610e2b565b925050604061102c86828701610e2b565b9150509250925092565b61103f81610e0a565b82525050565b600060208201905061105a6000830184611036565b92915050565b61106981610ec3565b82525050565b61107881610f04565b82525050565b600060a0820190506110936000830188611060565b6110a0602083018761106f565b6110ad604083018661106f565b6110ba6060830185611036565b6110c76080830184611036565b9695505050505050565b600081519050919050565b600082825260208201905092915050565b6000819050602082019050919050565b60a0820160008201516111136000850182610ed5565b5060208201516111266020850182610f16565b5060408201516111396040850182610f16565b50606082015161114c6060850182610f25565b50608082015161115f6080850182610f25565b50505050565b600061117183836110fd565b60a08301905092915050565b6000602082019050919050565b6000611195826110d1565b61119f81856110dc565b93506111aa836110ed565b8060005b838110156111db5781516111c28882611165565b97506111cd8361117d565b9250506001810190506111ae565b5085935050505092915050565b60006020820190508181036000830152611202818461118a565b905092915050565b600082825260208201905092915050565b7f53656c6c65722063616e6e6f7420626520627579657200000000000000000000600082015250565b600061125160168361120a565b915061125c8261121b565b602082019050919050565b6000602082019050818103600083015261128081611244565b9050919050565b7f4c697374696e67206973206e6f74206163746976650000000000000000000000600082015250565b60006112bd60158361120a565b91506112c882611287565b602082019050919050565b600060208201905081810360008301526112ec816112b0565b9050919050565b7f496e73756666696369656e74207061796d656e74000000000000000000000000600082015250565b600061132960148361120a565b9150611334826112f3565b602082019050919050565b600060208201905081810360008301526113588161131c565b9050919050565b6000606082019050611374600083018661106f565b611381602083018561106f565b61138e6040830184611036565b949350505050565b600060a0820190506113ab6000830188611036565b6113b8602083018761106f565b6113c5604083018661106f565b6113d26060830185611036565b6113df6080830184611036565b9695505050505050565b7f4f6e6c792073656c6c65722063616e2063616e63656c206c697374696e670000600082015250565b600061141f601e8361120a565b915061142a826113e9565b602082019050919050565b6000602082019050818103600083015261144e81611412565b9050919050565b600060408201905061146a6000830185611036565b611477602083018461106f565b9392505050565b7f4e487b7100000000000000000000000000000000000000000000000000000000600052601160045260246000fd5b60006114b882610e0a565b91507fffffffffffffffffffffffffffffffffffffffffffffffffffffffffffffffff82036114ea576114e961147e565b5b60018201905091905056fea26469706673582212202142c01a7720a7249957672e3e67b8bba8cb4eea011af6855b12a61925a57f4064736f6c63430008110033",
  "immutableReferences": {},
  "source": "// SPDX-License-Identifier: MIT\r\npragma solidity ^0.8.9;\r\n\r\nimport \"@openzeppelin/contracts/token/ERC721/ERC721.sol\";\r\n\r\ncontract Market {\r\n\tenum ListingStatus {\r\n\t\tActive,\r\n\t\tSold,\r\n\t\tCancelled\r\n\t}\r\n\r\n\tstruct Listing {\r\n\t\tListingStatus status;\r\n\t\taddress seller;\r\n\t\taddress token;\r\n\t\tuint tokenId;\r\n\t\tuint price;\r\n\t}\r\n\r\n\tevent Listed(\r\n\t\tuint listingId,\r\n\t\taddress seller,\r\n\t\taddress token,\r\n\t\tuint tokenId,\r\n\t\tuint price\r\n\t);\r\n\r\n\tevent Sale(\r\n\t\tuint listingId,\r\n\t\taddress buyer,\r\n\t\taddress token,\r\n\t\tuint tokenId,\r\n\t\tuint price\r\n\t);\r\n\r\n\tevent Cancel(\r\n\t\tuint listingId,\r\n\t\taddress seller\r\n\t);\r\n\r\n\tuint private _listingId = 0;\r\n\tmapping(uint => Listing) private _listings;\r\n    Listing[] public temp_list;\r\n\r\n\tfunction listToken(address token, uint tokenId, uint price) external returns (uint){\r\n\t\tIERC721(token).transferFrom(msg.sender, address(this), tokenId);\r\n\r\n\t\tListing memory listing = Listing(\r\n\t\t\tListingStatus.Active,\r\n\t\t\tmsg.sender,\r\n\t\t\ttoken,\r\n\t\t\ttokenId,\r\n\t\t\tprice\r\n\t\t);\r\n\r\n\t\t_listingId++;\r\n\r\n\t\t_listings[_listingId] = listing;\r\n\r\n\t\temit Listed(\r\n\t\t\t_listingId,\r\n\t\t\tmsg.sender,\r\n\t\t\ttoken,\r\n\t\t\ttokenId,\r\n\t\t\tprice\r\n\t\t);\r\n\r\n\t\treturn _listingId;\r\n\t}\r\n\r\n\tfunction getListing(uint listingid) public view returns (Listing memory) {\r\n\t\treturn _listings[listingid];\r\n\t}\r\n\r\n    function getAllNFT() external returns (Listing[] memory){\r\n        for(uint i=1; i<=_listingId; i++){\r\n            temp_list.push(_listings[_listingId]);\r\n        }\r\n        return temp_list;\r\n    }\r\n\r\n\tfunction buyToken(uint listingId) external payable {\r\n\t\tListing storage listing = _listings[listingId];\r\n\r\n\t\trequire(msg.sender != listing.seller, \"Seller cannot be buyer\");\r\n\t\trequire(listing.status == ListingStatus.Active, \"Listing is not active\");\r\n\r\n\t\trequire(msg.value >= listing.price, \"Insufficient payment\");\r\n\r\n\t\tlisting.status = ListingStatus.Sold;\r\n\r\n\t\tIERC721(listing.token).transferFrom(address(this), msg.sender, listing.tokenId);\r\n\t\tpayable(listing.seller).transfer(listing.price);\r\n\r\n\t\temit Sale(\r\n\t\t\tlistingId,\r\n\t\t\tmsg.sender,\r\n\t\t\tlisting.token,\r\n\t\t\tlisting.tokenId,\r\n\t\t\tlisting.price\r\n\t\t);\r\n\t}\r\n\r\n\tfunction cancel(uint listingId) public {\r\n\t\tListing storage listing = _listings[listingId];\r\n\r\n\t\trequire(msg.sender == listing.seller, \"Only seller can cancel listing\");\r\n\t\trequire(listing.status == ListingStatus.Active, \"Listing is not active\");\r\n\r\n\t\tlisting.status = ListingStatus.Cancelled;\r\n\t\r\n\t\tIERC721(listing.token).transferFrom(address(this), msg.sender, listing.tokenId);\r\n\r\n\t\temit Cancel(listingId, listing.seller);\r\n\t}\r\n}\r\n",
  "sourcePath": "E:\\Spring 2024\\CPSC 559 Adv. Blockchain\\VotingApp\\Team-ABCD-Voting-with-blockchain\\contracts\\Market.sol",
  "compiler": {
    "name": "solc",
    "version": "0.8.17+commit.8df45f5f.Emscripten.clang"
  },
  "schemaVersion": "3.4.16",
  "updatedAt": "2024-05-02T21:37:27.918Z",
  "devdoc": {
    "kind": "dev",
    "methods": {},
    "version": 1
  },
  "userdoc": {
    "kind": "user",
    "methods": {},
    "version": 1
  }
}