{
  "contractName": "NFT",
  "abi": [
    {
      "inputs": [],
      "stateMutability": "nonpayable",
      "type": "constructor"
    },
    {
      "anonymous": false,
      "inputs": [
        {
          "indexed": true,
          "internalType": "address",
          "name": "owner",
          "type": "address"
        },
        {
          "indexed": true,
          "internalType": "address",
          "name": "approved",
          "type": "address"
        },
        {
          "indexed": true,
          "internalType": "uint256",
          "name": "tokenId",
          "type": "uint256"
        }
      ],
      "name": "Approval",
      "type": "event"
    },
    {
      "anonymous": false,
      "inputs": [
        {
          "indexed": true,
          "internalType": "address",
          "name": "owner",
          "type": "address"
        },
        {
          "indexed": true,
          "internalType": "address",
          "name": "operator",
          "type": "address"
        },
        {
          "indexed": false,
          "internalType": "bool",
          "name": "approved",
          "type": "bool"
        }
      ],
      "name": "ApprovalForAll",
      "type": "event"
    },
    {
      "anonymous": false,
      "inputs": [
        {
          "indexed": true,
          "internalType": "address",
          "name": "from",
          "type": "address"
        },
        {
          "indexed": true,
          "internalType": "address",
          "name": "to",
          "type": "address"
        },
        {
          "indexed": true,
          "internalType": "uint256",
          "name": "tokenId",
          "type": "uint256"
        }
      ],
      "name": "Transfer",
      "type": "event"
    },
    {
      "inputs": [],
      "name": "_tokenId",
      "outputs": [
        {
          "internalType": "uint256",
          "name": "",
          "type": "uint256"
        }
      ],
      "stateMutability": "view",
      "type": "function",
      "constant": true
    },
    {
      "inputs": [
        {
          "internalType": "address",
          "name": "to",
          "type": "address"
        },
        {
          "internalType": "uint256",
          "name": "tokenId",
          "type": "uint256"
        }
      ],
      "name": "approve",
      "outputs": [],
      "stateMutability": "nonpayable",
      "type": "function"
    },
    {
      "inputs": [
        {
          "internalType": "address",
          "name": "owner",
          "type": "address"
        }
      ],
      "name": "balanceOf",
      "outputs": [
        {
          "internalType": "uint256",
          "name": "",
          "type": "uint256"
        }
      ],
      "stateMutability": "view",
      "type": "function",
      "constant": true
    },
    {
      "inputs": [
        {
          "internalType": "uint256",
          "name": "tokenId",
          "type": "uint256"
        }
      ],
      "name": "getApproved",
      "outputs": [
        {
          "internalType": "address",
          "name": "",
          "type": "address"
        }
      ],
      "stateMutability": "view",
      "type": "function",
      "constant": true
    },
    {
      "inputs": [
        {
          "internalType": "address",
          "name": "owner",
          "type": "address"
        },
        {
          "internalType": "address",
          "name": "operator",
          "type": "address"
        }
      ],
      "name": "isApprovedForAll",
      "outputs": [
        {
          "internalType": "bool",
          "name": "",
          "type": "bool"
        }
      ],
      "stateMutability": "view",
      "type": "function",
      "constant": true
    },
    {
      "inputs": [],
      "name": "name",
      "outputs": [
        {
          "internalType": "string",
          "name": "",
          "type": "string"
        }
      ],
      "stateMutability": "view",
      "type": "function",
      "constant": true
    },
    {
      "inputs": [
        {
          "internalType": "uint256",
          "name": "tokenId",
          "type": "uint256"
        }
      ],
      "name": "ownerOf",
      "outputs": [
        {
          "internalType": "address",
          "name": "",
          "type": "address"
        }
      ],
      "stateMutability": "view",
      "type": "function",
      "constant": true
    },
    {
      "inputs": [
        {
          "internalType": "address",
          "name": "from",
          "type": "address"
        },
        {
          "internalType": "address",
          "name": "to",
          "type": "address"
        },
        {
          "internalType": "uint256",
          "name": "tokenId",
          "type": "uint256"
        }
      ],
      "name": "safeTransferFrom",
      "outputs": [],
      "stateMutability": "nonpayable",
      "type": "function"
    },
    {
      "inputs": [
        {
          "internalType": "address",
          "name": "from",
          "type": "address"
        },
        {
          "internalType": "address",
          "name": "to",
          "type": "address"
        },
        {
          "internalType": "uint256",
          "name": "tokenId",
          "type": "uint256"
        },
        {
          "internalType": "bytes",
          "name": "data",
          "type": "bytes"
        }
      ],
      "name": "safeTransferFrom",
      "outputs": [],
      "stateMutability": "nonpayable",
      "type": "function"
    },
    {
      "inputs": [
        {
          "internalType": "address",
          "name": "operator",
          "type": "address"
        },
        {
          "internalType": "bool",
          "name": "approved",
          "type": "bool"
        }
      ],
      "name": "setApprovalForAll",
      "outputs": [],
      "stateMutability": "nonpayable",
      "type": "function"
    },
    {
      "inputs": [
        {
          "internalType": "bytes4",
          "name": "interfaceId",
          "type": "bytes4"
        }
      ],
      "name": "supportsInterface",
      "outputs": [
        {
          "internalType": "bool",
          "name": "",
          "type": "bool"
        }
      ],
      "stateMutability": "view",
      "type": "function",
      "constant": true
    },
    {
      "inputs": [],
      "name": "symbol",
      "outputs": [
        {
          "internalType": "string",
          "name": "",
          "type": "string"
        }
      ],
      "stateMutability": "view",
      "type": "function",
      "constant": true
    },
    {
      "inputs": [
        {
          "internalType": "uint256",
          "name": "tokenId",
          "type": "uint256"
        }
      ],
      "name": "tokenURI",
      "outputs": [
        {
          "internalType": "string",
          "name": "",
          "type": "string"
        }
      ],
      "stateMutability": "view",
      "type": "function",
      "constant": true
    },
    {
      "inputs": [
        {
          "internalType": "address",
          "name": "from",
          "type": "address"
        },
        {
          "internalType": "address",
          "name": "to",
          "type": "address"
        },
        {
          "internalType": "uint256",
          "name": "tokenId",
          "type": "uint256"
        }
      ],
      "name": "transferFrom",
      "outputs": [],
      "stateMutability": "nonpayable",
      "type": "function"
    },
    {
      "inputs": [],
      "name": "mint",
      "outputs": [
        {
          "internalType": "uint256",
          "name": "",
          "type": "uint256"
        }
      ],
      "stateMutability": "nonpayable",
      "type": "function"
    },
    {
      "inputs": [],
      "name": "getNftTokenid",
      "outputs": [
        {
          "internalType": "uint256",
          "name": "tokenId",
          "type": "uint256"
        }
      ],
      "stateMutability": "view",
      "type": "function",
      "constant": true
    }
  ],
  "bytecode": "0x608060405260006006553480156200001657600080fd5b506040518060400160405280600781526020017f414243204e4654000000000000000000000000000000000000000000000000008152506040518060400160405280600181526020017f4400000000000000000000000000000000000000000000000000000000000000815250816000908162000094919062000329565b508060019081620000a6919062000329565b50505062000410565b600081519050919050565b7f4e487b7100000000000000000000000000000000000000000000000000000000600052604160045260246000fd5b7f4e487b7100000000000000000000000000000000000000000000000000000000600052602260045260246000fd5b600060028204905060018216806200013157607f821691505b602082108103620001475762000146620000e9565b5b50919050565b60008190508160005260206000209050919050565b60006020601f8301049050919050565b600082821b905092915050565b600060088302620001b17fffffffffffffffffffffffffffffffffffffffffffffffffffffffffffffffff8262000172565b620001bd868362000172565b95508019841693508086168417925050509392505050565b6000819050919050565b6000819050919050565b60006200020a62000204620001fe84620001d5565b620001df565b620001d5565b9050919050565b6000819050919050565b6200022683620001e9565b6200023e620002358262000211565b8484546200017f565b825550505050565b600090565b6200025562000246565b620002628184846200021b565b505050565b5b818110156200028a576200027e6000826200024b565b60018101905062000268565b5050565b601f821115620002d957620002a3816200014d565b620002ae8462000162565b81016020851015620002be578190505b620002d6620002cd8562000162565b83018262000267565b50505b505050565b600082821c905092915050565b6000620002fe60001984600802620002de565b1980831691505092915050565b6000620003198383620002eb565b9150826002028217905092915050565b6200033482620000af565b67ffffffffffffffff81111562000350576200034f620000ba565b5b6200035c825462000118565b620003698282856200028e565b600060209050601f831160018114620003a157600084156200038c578287015190505b6200039885826200030b565b86555062000408565b601f198416620003b1866200014d565b60005b82811015620003db57848901518255600182019150602085019450602081019050620003b4565b86831015620003fb5784890151620003f7601f891682620002eb565b8355505b6001600288020188555050505b505050505050565b6126dd80620004206000396000f3fe608060405234801561001057600080fd5b50600436106101005760003560e01c80636352211e11610097578063a22cb46511610066578063a22cb465146102af578063b88d4fde146102cb578063c87b56dd146102e7578063e985e9c51461031757610100565b80636352211e1461021357806370a08231146102435780637307d0fa1461027357806395d89b411461029157610100565b80631249c58b116100d35780631249c58b1461019f57806323b872dd146101bd57806324822514146101d957806342842e0e146101f757610100565b806301ffc9a71461010557806306fdde0314610135578063081812fc14610153578063095ea7b314610183575b600080fd5b61011f600480360381019061011a91906118fa565b610347565b60405161012c9190611942565b60405180910390f35b61013d610429565b60405161014a91906119ed565b60405180910390f35b61016d60048036038101906101689190611a45565b6104bb565b60405161017a9190611ab3565b60405180910390f35b61019d60048036038101906101989190611afa565b610501565b005b6101a7610618565b6040516101b49190611b49565b60405180910390f35b6101d760048036038101906101d29190611b64565b610646565b005b6101e16106a6565b6040516101ee9190611b49565b60405180910390f35b610211600480360381019061020c9190611b64565b6106ac565b005b61022d60048036038101906102289190611a45565b6106cc565b60405161023a9190611ab3565b60405180910390f35b61025d60048036038101906102589190611bb7565b610752565b60405161026a9190611b49565b60405180910390f35b61027b610809565b6040516102889190611b49565b60405180910390f35b610299610813565b6040516102a691906119ed565b60405180910390f35b6102c960048036038101906102c49190611c10565b6108a5565b005b6102e560048036038101906102e09190611d85565b6108bb565b005b61030160048036038101906102fc9190611a45565b61091d565b60405161030e91906119ed565b60405180910390f35b610331600480360381019061032c9190611e08565b610985565b60405161033e9190611942565b60405180910390f35b60007f80ac58cd000000000000000000000000000000000000000000000000000000007bffffffffffffffffffffffffffffffffffffffffffffffffffffffff1916827bffffffffffffffffffffffffffffffffffffffffffffffffffffffff1916148061041257507f5b5e139f000000000000000000000000000000000000000000000000000000007bffffffffffffffffffffffffffffffffffffffffffffffffffffffff1916827bffffffffffffffffffffffffffffffffffffffffffffffffffffffff1916145b80610422575061042182610a19565b5b9050919050565b60606000805461043890611e77565b80601f016020809104026020016040519081016040528092919081815260200182805461046490611e77565b80156104b15780601f10610486576101008083540402835291602001916104b1565b820191906000526020600020905b81548152906001019060200180831161049457829003601f168201915b5050505050905090565b60006104c682610a83565b6004600083815260200190815260200160002060009054906101000a900473ffffffffffffffffffffffffffffffffffffffff169050919050565b600061050c826106cc565b90508073ffffffffffffffffffffffffffffffffffffffff168373ffffffffffffffffffffffffffffffffffffffff160361057c576040517f08c379a000000000000000000000000000000000000000000000000000000000815260040161057390611f1a565b60405180910390fd5b8073ffffffffffffffffffffffffffffffffffffffff1661059b610ace565b73ffffffffffffffffffffffffffffffffffffffff1614806105ca57506105c9816105c4610ace565b610985565b5b610609576040517f08c379a000000000000000000000000000000000000000000000000000000000815260040161060090611fac565b60405180910390fd5b6106138383610ad6565b505050565b60006006600081548092919061062d90611ffb565b919050555061063e33600654610b8f565b600654905090565b610657610651610ace565b82610dac565b610696576040517f08c379a000000000000000000000000000000000000000000000000000000000815260040161068d906120b5565b60405180910390fd5b6106a1838383610e41565b505050565b60065481565b6106c7838383604051806020016040528060008152506108bb565b505050565b6000806106d88361113a565b9050600073ffffffffffffffffffffffffffffffffffffffff168173ffffffffffffffffffffffffffffffffffffffff1603610749576040517f08c379a000000000000000000000000000000000000000000000000000000000815260040161074090612121565b60405180910390fd5b80915050919050565b60008073ffffffffffffffffffffffffffffffffffffffff168273ffffffffffffffffffffffffffffffffffffffff16036107c2576040517f08c379a00000000000000000000000000000000000000000000000000000000081526004016107b9906121b3565b60405180910390fd5b600360008373ffffffffffffffffffffffffffffffffffffffff1673ffffffffffffffffffffffffffffffffffffffff168152602001908152602001600020549050919050565b6000600654905090565b60606001805461082290611e77565b80601f016020809104026020016040519081016040528092919081815260200182805461084e90611e77565b801561089b5780601f106108705761010080835404028352916020019161089b565b820191906000526020600020905b81548152906001019060200180831161087e57829003601f168201915b5050505050905090565b6108b76108b0610ace565b8383611177565b5050565b6108cc6108c6610ace565b83610dac565b61090b576040517f08c379a0000000000000000000000000000000000000000000000000000000008152600401610902906120b5565b60405180910390fd5b610917848484846112e3565b50505050565b606061092882610a83565b600061093261133f565b90506000815111610952576040518060200160405280600081525061097d565b8061095c84611356565b60405160200161096d92919061220f565b6040516020818303038152906040525b915050919050565b6000600560008473ffffffffffffffffffffffffffffffffffffffff1673ffffffffffffffffffffffffffffffffffffffff16815260200190815260200160002060008373ffffffffffffffffffffffffffffffffffffffff1673ffffffffffffffffffffffffffffffffffffffff16815260200190815260200160002060009054906101000a900460ff16905092915050565b60007f01ffc9a7000000000000000000000000000000000000000000000000000000007bffffffffffffffffffffffffffffffffffffffffffffffffffffffff1916827bffffffffffffffffffffffffffffffffffffffffffffffffffffffff1916149050919050565b610a8c81611424565b610acb576040517f08c379a0000000000000000000000000000000000000000000000000000000008152600401610ac290612121565b60405180910390fd5b50565b600033905090565b816004600083815260200190815260200160002060006101000a81548173ffffffffffffffffffffffffffffffffffffffff021916908373ffffffffffffffffffffffffffffffffffffffff160217905550808273ffffffffffffffffffffffffffffffffffffffff16610b49836106cc565b73ffffffffffffffffffffffffffffffffffffffff167f8c5be1e5ebec7d5bd14f71427d1e84f3dd0314c0f7b2291e5b200ac8c7c3b92560405160405180910390a45050565b600073ffffffffffffffffffffffffffffffffffffffff168273ffffffffffffffffffffffffffffffffffffffff1603610bfe576040517f08c379a0000000000000000000000000000000000000000000000000000000008152600401610bf59061227f565b60405180910390fd5b610c0781611424565b15610c47576040517f08c379a0000000000000000000000000000000000000000000000000000000008152600401610c3e906122eb565b60405180910390fd5b610c55600083836001611465565b610c5e81611424565b15610c9e576040517f08c379a0000000000000000000000000000000000000000000000000000000008152600401610c95906122eb565b60405180910390fd5b6001600360008473ffffffffffffffffffffffffffffffffffffffff1673ffffffffffffffffffffffffffffffffffffffff16815260200190815260200160002060008282540192505081905550816002600083815260200190815260200160002060006101000a81548173ffffffffffffffffffffffffffffffffffffffff021916908373ffffffffffffffffffffffffffffffffffffffff160217905550808273ffffffffffffffffffffffffffffffffffffffff16600073ffffffffffffffffffffffffffffffffffffffff167fddf252ad1be2c89b69c2b068fc378daa952ba7f163c4a11628f55a4df523b3ef60405160405180910390a4610da860008383600161158b565b5050565b600080610db8836106cc565b90508073ffffffffffffffffffffffffffffffffffffffff168473ffffffffffffffffffffffffffffffffffffffff161480610dfa5750610df98185610985565b5b80610e3857508373ffffffffffffffffffffffffffffffffffffffff16610e20846104bb565b73ffffffffffffffffffffffffffffffffffffffff16145b91505092915050565b8273ffffffffffffffffffffffffffffffffffffffff16610e61826106cc565b73ffffffffffffffffffffffffffffffffffffffff1614610eb7576040517f08c379a0000000000000000000000000000000000000000000000000000000008152600401610eae9061237d565b60405180910390fd5b600073ffffffffffffffffffffffffffffffffffffffff168273ffffffffffffffffffffffffffffffffffffffff1603610f26576040517f08c379a0000000000000000000000000000000000000000000000000000000008152600401610f1d9061240f565b60405180910390fd5b610f338383836001611465565b8273ffffffffffffffffffffffffffffffffffffffff16610f53826106cc565b73ffffffffffffffffffffffffffffffffffffffff1614610fa9576040517f08c379a0000000000000000000000000000000000000000000000000000000008152600401610fa09061237d565b60405180910390fd5b6004600082815260200190815260200160002060006101000a81549073ffffffffffffffffffffffffffffffffffffffff02191690556001600360008573ffffffffffffffffffffffffffffffffffffffff1673ffffffffffffffffffffffffffffffffffffffff168152602001908152602001600020600082825403925050819055506001600360008473ffffffffffffffffffffffffffffffffffffffff1673ffffffffffffffffffffffffffffffffffffffff16815260200190815260200160002060008282540192505081905550816002600083815260200190815260200160002060006101000a81548173ffffffffffffffffffffffffffffffffffffffff021916908373ffffffffffffffffffffffffffffffffffffffff160217905550808273ffffffffffffffffffffffffffffffffffffffff168473ffffffffffffffffffffffffffffffffffffffff167fddf252ad1be2c89b69c2b068fc378daa952ba7f163c4a11628f55a4df523b3ef60405160405180910390a4611135838383600161158b565b505050565b60006002600083815260200190815260200160002060009054906101000a900473ffffffffffffffffffffffffffffffffffffffff169050919050565b8173ffffffffffffffffffffffffffffffffffffffff168373ffffffffffffffffffffffffffffffffffffffff16036111e5576040517f08c379a00000000000000000000000000000000000000000000000000000000081526004016111dc9061247b565b60405180910390fd5b80600560008573ffffffffffffffffffffffffffffffffffffffff1673ffffffffffffffffffffffffffffffffffffffff16815260200190815260200160002060008473ffffffffffffffffffffffffffffffffffffffff1673ffffffffffffffffffffffffffffffffffffffff16815260200190815260200160002060006101000a81548160ff0219169083151502179055508173ffffffffffffffffffffffffffffffffffffffff168373ffffffffffffffffffffffffffffffffffffffff167f17307eab39ab6107e8899845ad3d59bd9653f200f220920489ca2b5937696c31836040516112d69190611942565b60405180910390a3505050565b6112ee848484610e41565b6112fa84848484611591565b611339576040517f08c379a00000000000000000000000000000000000000000000000000000000081526004016113309061250d565b60405180910390fd5b50505050565b606060405180602001604052806000815250905090565b60606000600161136584611718565b01905060008167ffffffffffffffff81111561138457611383611c5a565b5b6040519080825280601f01601f1916602001820160405280156113b65781602001600182028036833780820191505090505b509050600082602001820190505b600115611419578080600190039150507f3031323334353637383961626364656600000000000000000000000000000000600a86061a8153600a858161140d5761140c61252d565b5b049450600085036113c4575b819350505050919050565b60008073ffffffffffffffffffffffffffffffffffffffff166114468361113a565b73ffffffffffffffffffffffffffffffffffffffff1614159050919050565b600181111561158557600073ffffffffffffffffffffffffffffffffffffffff168473ffffffffffffffffffffffffffffffffffffffff16146114f95780600360008673ffffffffffffffffffffffffffffffffffffffff1673ffffffffffffffffffffffffffffffffffffffff16815260200190815260200160002060008282546114f1919061255c565b925050819055505b600073ffffffffffffffffffffffffffffffffffffffff168373ffffffffffffffffffffffffffffffffffffffff16146115845780600360008573ffffffffffffffffffffffffffffffffffffffff1673ffffffffffffffffffffffffffffffffffffffff168152602001908152602001600020600082825461157c9190612590565b925050819055505b5b50505050565b50505050565b60006115b28473ffffffffffffffffffffffffffffffffffffffff1661186b565b1561170b578373ffffffffffffffffffffffffffffffffffffffff1663150b7a026115db610ace565b8786866040518563ffffffff1660e01b81526004016115fd9493929190612619565b6020604051808303816000875af192505050801561163957506040513d601f19601f82011682018060405250810190611636919061267a565b60015b6116bb573d8060008114611669576040519150601f19603f3d011682016040523d82523d6000602084013e61166e565b606091505b5060008151036116b3576040517f08c379a00000000000000000000000000000000000000000000000000000000081526004016116aa9061250d565b60405180910390fd5b805181602001fd5b63150b7a0260e01b7bffffffffffffffffffffffffffffffffffffffffffffffffffffffff1916817bffffffffffffffffffffffffffffffffffffffffffffffffffffffff191614915050611710565b600190505b949350505050565b600080600090507a184f03e93ff9f4daa797ed6e38ed64bf6a1f0100000000000000008310611776577a184f03e93ff9f4daa797ed6e38ed64bf6a1f010000000000000000838161176c5761176b61252d565b5b0492506040810190505b6d04ee2d6d415b85acef810000000083106117b3576d04ee2d6d415b85acef810000000083816117a9576117a861252d565b5b0492506020810190505b662386f26fc1000083106117e257662386f26fc1000083816117d8576117d761252d565b5b0492506010810190505b6305f5e100831061180b576305f5e10083816118015761180061252d565b5b0492506008810190505b61271083106118305761271083816118265761182561252d565b5b0492506004810190505b6064831061185357606483816118495761184861252d565b5b0492506002810190505b600a8310611862576001810190505b80915050919050565b6000808273ffffffffffffffffffffffffffffffffffffffff163b119050919050565b6000604051905090565b600080fd5b600080fd5b60007fffffffff0000000000000000000000000000000000000000000000000000000082169050919050565b6118d7816118a2565b81146118e257600080fd5b50565b6000813590506118f4816118ce565b92915050565b6000602082840312156119105761190f611898565b5b600061191e848285016118e5565b91505092915050565b60008115159050919050565b61193c81611927565b82525050565b60006020820190506119576000830184611933565b92915050565b600081519050919050565b600082825260208201905092915050565b60005b8381101561199757808201518184015260208101905061197c565b60008484015250505050565b6000601f19601f8301169050919050565b60006119bf8261195d565b6119c98185611968565b93506119d9818560208601611979565b6119e2816119a3565b840191505092915050565b60006020820190508181036000830152611a0781846119b4565b905092915050565b6000819050919050565b611a2281611a0f565b8114611a2d57600080fd5b50565b600081359050611a3f81611a19565b92915050565b600060208284031215611a5b57611a5a611898565b5b6000611a6984828501611a30565b91505092915050565b600073ffffffffffffffffffffffffffffffffffffffff82169050919050565b6000611a9d82611a72565b9050919050565b611aad81611a92565b82525050565b6000602082019050611ac86000830184611aa4565b92915050565b611ad781611a92565b8114611ae257600080fd5b50565b600081359050611af481611ace565b92915050565b60008060408385031215611b1157611b10611898565b5b6000611b1f85828601611ae5565b9250506020611b3085828601611a30565b9150509250929050565b611b4381611a0f565b82525050565b6000602082019050611b5e6000830184611b3a565b92915050565b600080600060608486031215611b7d57611b7c611898565b5b6000611b8b86828701611ae5565b9350506020611b9c86828701611ae5565b9250506040611bad86828701611a30565b9150509250925092565b600060208284031215611bcd57611bcc611898565b5b6000611bdb84828501611ae5565b91505092915050565b611bed81611927565b8114611bf857600080fd5b50565b600081359050611c0a81611be4565b92915050565b60008060408385031215611c2757611c26611898565b5b6000611c3585828601611ae5565b9250506020611c4685828601611bfb565b9150509250929050565b600080fd5b600080fd5b7f4e487b7100000000000000000000000000000000000000000000000000000000600052604160045260246000fd5b611c92826119a3565b810181811067ffffffffffffffff82111715611cb157611cb0611c5a565b5b80604052505050565b6000611cc461188e565b9050611cd08282611c89565b919050565b600067ffffffffffffffff821115611cf057611cef611c5a565b5b611cf9826119a3565b9050602081019050919050565b82818337600083830152505050565b6000611d28611d2384611cd5565b611cba565b905082815260208101848484011115611d4457611d43611c55565b5b611d4f848285611d06565b509392505050565b600082601f830112611d6c57611d6b611c50565b5b8135611d7c848260208601611d15565b91505092915050565b60008060008060808587031215611d9f57611d9e611898565b5b6000611dad87828801611ae5565b9450506020611dbe87828801611ae5565b9350506040611dcf87828801611a30565b925050606085013567ffffffffffffffff811115611df057611def61189d565b5b611dfc87828801611d57565b91505092959194509250565b60008060408385031215611e1f57611e1e611898565b5b6000611e2d85828601611ae5565b9250506020611e3e85828601611ae5565b9150509250929050565b7f4e487b7100000000000000000000000000000000000000000000000000000000600052602260045260246000fd5b60006002820490506001821680611e8f57607f821691505b602082108103611ea257611ea1611e48565b5b50919050565b7f4552433732313a20617070726f76616c20746f2063757272656e74206f776e6560008201527f7200000000000000000000000000000000000000000000000000000000000000602082015250565b6000611f04602183611968565b9150611f0f82611ea8565b604082019050919050565b60006020820190508181036000830152611f3381611ef7565b9050919050565b7f4552433732313a20617070726f76652063616c6c6572206973206e6f7420746f60008201527f6b656e206f776e6572206f7220617070726f76656420666f7220616c6c000000602082015250565b6000611f96603d83611968565b9150611fa182611f3a565b604082019050919050565b60006020820190508181036000830152611fc581611f89565b9050919050565b7f4e487b7100000000000000000000000000000000000000000000000000000000600052601160045260246000fd5b600061200682611a0f565b91507fffffffffffffffffffffffffffffffffffffffffffffffffffffffffffffffff820361203857612037611fcc565b5b600182019050919050565b7f4552433732313a2063616c6c6572206973206e6f7420746f6b656e206f776e6560008201527f72206f7220617070726f76656400000000000000000000000000000000000000602082015250565b600061209f602d83611968565b91506120aa82612043565b604082019050919050565b600060208201905081810360008301526120ce81612092565b9050919050565b7f4552433732313a20696e76616c696420746f6b656e2049440000000000000000600082015250565b600061210b601883611968565b9150612116826120d5565b602082019050919050565b6000602082019050818103600083015261213a816120fe565b9050919050565b7f4552433732313a2061646472657373207a65726f206973206e6f74206120766160008201527f6c6964206f776e65720000000000000000000000000000000000000000000000602082015250565b600061219d602983611968565b91506121a882612141565b604082019050919050565b600060208201905081810360008301526121cc81612190565b9050919050565b600081905092915050565b60006121e98261195d565b6121f381856121d3565b9350612203818560208601611979565b80840191505092915050565b600061221b82856121de565b915061222782846121de565b91508190509392505050565b7f4552433732313a206d696e7420746f20746865207a65726f2061646472657373600082015250565b6000612269602083611968565b915061227482612233565b602082019050919050565b600060208201905081810360008301526122988161225c565b9050919050565b7f4552433732313a20746f6b656e20616c7265616479206d696e74656400000000600082015250565b60006122d5601c83611968565b91506122e08261229f565b602082019050919050565b60006020820190508181036000830152612304816122c8565b9050919050565b7f4552433732313a207472616e736665722066726f6d20696e636f72726563742060008201527f6f776e6572000000000000000000000000000000000000000000000000000000602082015250565b6000612367602583611968565b91506123728261230b565b604082019050919050565b600060208201905081810360008301526123968161235a565b9050919050565b7f4552433732313a207472616e7366657220746f20746865207a65726f2061646460008201527f7265737300000000000000000000000000000000000000000000000000000000602082015250565b60006123f9602483611968565b91506124048261239d565b604082019050919050565b60006020820190508181036000830152612428816123ec565b9050919050565b7f4552433732313a20617070726f766520746f2063616c6c657200000000000000600082015250565b6000612465601983611968565b91506124708261242f565b602082019050919050565b6000602082019050818103600083015261249481612458565b9050919050565b7f4552433732313a207472616e7366657220746f206e6f6e20455243373231526560008201527f63656976657220696d706c656d656e7465720000000000000000000000000000602082015250565b60006124f7603283611968565b91506125028261249b565b604082019050919050565b60006020820190508181036000830152612526816124ea565b9050919050565b7f4e487b7100000000000000000000000000000000000000000000000000000000600052601260045260246000fd5b600061256782611a0f565b915061257283611a0f565b925082820390508181111561258a57612589611fcc565b5b92915050565b600061259b82611a0f565b91506125a683611a0f565b92508282019050808211156125be576125bd611fcc565b5b92915050565b600081519050919050565b600082825260208201905092915050565b60006125eb826125c4565b6125f581856125cf565b9350612605818560208601611979565b61260e816119a3565b840191505092915050565b600060808201905061262e6000830187611aa4565b61263b6020830186611aa4565b6126486040830185611b3a565b818103606083015261265a81846125e0565b905095945050505050565b600081519050612674816118ce565b92915050565b6000602082840312156126905761268f611898565b5b600061269e84828501612665565b9150509291505056fea26469706673582212207ea99a1ed519fef1c57562fda5cc487b3c8481f45e84b7cedfac8adafae19a5f64736f6c63430008110033",
  "immutableReferences": {},
  "source": "// SPDX-License-Identifier: MIT\npragma solidity ^0.8.9;\n\nimport \"@openzeppelin/contracts/token/ERC721/ERC721.sol\";\n\ncontract NFT is ERC721 {\n\tconstructor() ERC721(\"ABC NFT\", \"D\") {}\n\n\tuint public _tokenId = 0;\n\n\tfunction mint() external returns (uint) {\n\t\t_tokenId++;\n\t\t_mint(msg.sender, _tokenId);\n\t\treturn _tokenId;\n\t}\n\n\tfunction getNftTokenid() public view returns (uint tokenId){\n\t\ttokenId = _tokenId;\n\t}\n}",
  "sourcePath": "E:\\Kunal\\2023\\University_Work_Spring23\\AdvanceBlockchain\\Final Project\\BlockchainProject-main\\BlockchainProject-main\\contracts\\NFT.sol",
  "compiler": {
    "name": "solc",
    "version": "0.8.17+commit.8df45f5f.Emscripten.clang"
  },
  "schemaVersion": "3.4.13",
  "updatedAt": "2023-05-08T02:39:26.140Z",
  "networkType": "ethereum",
  "devdoc": {
    "kind": "dev",
    "methods": {
      "approve(address,uint256)": {
        "details": "See {IERC721-approve}."
      },
      "balanceOf(address)": {
        "details": "See {IERC721-balanceOf}."
      },
      "getApproved(uint256)": {
        "details": "See {IERC721-getApproved}."
      },
      "isApprovedForAll(address,address)": {
        "details": "See {IERC721-isApprovedForAll}."
      },
      "name()": {
        "details": "See {IERC721Metadata-name}."
      },
      "ownerOf(uint256)": {
        "details": "See {IERC721-ownerOf}."
      },
      "safeTransferFrom(address,address,uint256)": {
        "details": "See {IERC721-safeTransferFrom}."
      },
      "safeTransferFrom(address,address,uint256,bytes)": {
        "details": "See {IERC721-safeTransferFrom}."
      },
      "setApprovalForAll(address,bool)": {
        "details": "See {IERC721-setApprovalForAll}."
      },
      "supportsInterface(bytes4)": {
        "details": "See {IERC165-supportsInterface}."
      },
      "symbol()": {
        "details": "See {IERC721Metadata-symbol}."
      },
      "tokenURI(uint256)": {
        "details": "See {IERC721Metadata-tokenURI}."
      },
      "transferFrom(address,address,uint256)": {
        "details": "See {IERC721-transferFrom}."
      }
    },
    "version": 1
  },
  "userdoc": {
    "kind": "user",
    "methods": {},
    "version": 1
  }
}